:100000000200D080108D998D2E80003099028002E0
:1000100080F9C2992280EE8060780179007A007BB5
:10002000237D0B7C00120091758700758920D28E8C
:10003000758DFDE4F521F522E52224F5E5216480A6
:10004000347F500280028002802C74232522F9879D
:10005000E075985074232522F987051200030522C4
:10006000E52270020521E52224F5E5216480347F34
:100070005002800280D480FE22809E898288838BF9
:1000800000EC4D6036E4E0F608A31DBDFFF31C80D4
:10009000F0B800118B00EC4D6021E7F609081DBD9A
:1000A000FFF41C80F1898288838B00EC4D600CE4A6
:1000B00093F608A31DBDFFF31C80F022E4F5D07574
:1000C000812F78207A0FF608DAFC12001702000060
:0300D0000200BC6F
:0B0100004869206D796E616D656973C0
:00000001FF
