:1000000002009A802A8C228D23E5234522600280FB
:10001000028010E52324FFF523E52234FFF522C2F8
:10002000908002D29030CF02800280DDC2CF228049
:10003000D48051E4F520F5217590FE75CBFF75CA8B
:10004000CA53C8FCD2ADD2AFD2CA30B60280028049
:100050000675200075210130B70280028005E4F5A5
:1000600020F521E521B40107E520B40002800280DB
:10007000097C007D2312000380077C007D4B120069
:100080000380C72280ADE4F5D0758124F520F521E9
:0D009000F522F52312003102000002008667
:00000001FF
